{"project/contracts/GiggleGiftCoupon.sol":{"GiggleGiftCoupon":{"abi":[{"inputs":[],"stateMutability":"nonpayable","type":"constructor"},{"inputs":[{"internalType":"address","name":"owner","type":"address"}],"name":"OwnableInvalidOwner","type":"error"},{"inputs":[{"internalType":"address","name":"account","type":"address"}],"name":"OwnableUnauthorizedAccount","type":"error"},{"inputs":[],"name":"ReentrancyGuardReentrantCall","type":"error"},{"anonymous":false,"inputs":[{"indexed":true,"internalType":"uint256","name":"couponId","type":"uint256"},{"indexed":true,"internalType":"address","name":"creator","type":"address"}],"name":"CouponCancelled","type":"event"},{"anonymous":false,"inputs":[{"indexed":true,"internalType":"uint256","name":"couponId","type":"uint256"},{"indexed":true,"internalType":"address","name":"creator","type":"address"},{"indexed":false,"internalType":"address","name":"token","type":"address"},{"indexed":false,"internalType":"uint256","name":"amount","type":"uint256"},{"indexed":false,"internalType":"string","name":"metadataURI","type":"string"},{"indexed":false,"internalType":"uint256","name":"expiresAt","type":"uint256"}],"name":"CouponCreated","type":"event"},{"anonymous":false,"inputs":[{"indexed":true,"internalType":"uint256","name":"couponId","type":"uint256"},{"indexed":true,"internalType":"address","name":"redeemer","type":"address"},{"indexed":false,"internalType":"uint256","name":"amount","type":"uint256"},{"indexed":false,"internalType":"uint256","name":"redeemedAt","type":"uint256"}],"name":"CouponRedeemed","type":"event"},{"anonymous":false,"inputs":[{"indexed":true,"internalType":"address","name":"previousOwner","type":"address"},{"indexed":true,"internalType":"address","name":"newOwner","type":"address"}],"name":"OwnershipTransferred","type":"event"},{"anonymous":false,"inputs":[{"indexed":true,"internalType":"address","name":"token","type":"address"}],"name":"TokenAdded","type":"event"},{"anonymous":false,"inputs":[{"indexed":true,"internalType":"address","name":"token","type":"address"}],"name":"TokenRemoved","type":"event"},{"inputs":[{"internalType":"address","name":"token","type":"address"}],"name":"addSupportedToken","outputs":[],"stateMutability":"nonpayable","type":"function"},{"inputs":[{"internalType":"uint256","name":"couponId","type":"uint256"}],"name":"cancelCoupon","outputs":[],"stateMutability":"nonpayable","type":"function"},{"inputs":[{"internalType":"string","name":"code","type":"string"}],"name":"checkCoupon","outputs":[{"internalType":"bool","name":"exists","type":"bool"},{"internalType":"bool","name":"isValid","type":"bool"},{"internalType":"address","name":"token","type":"address"},{"internalType":"uint256","name":"amount","type":"uint256"},{"internalType":"string","name":"metadataURI","type":"string"},{"internalType":"uint256","name":"expiresAt","type":"uint256"},{"internalType":"address","name":"creator","type":"address"}],"stateMutability":"view","type":"function"},{"inputs":[{"internalType":"bytes32","name":"","type":"bytes32"}],"name":"codeHashToCouponId","outputs":[{"internalType":"uint256","name":"","type":"uint256"}],"stateMutability":"view","type":"function"},{"inputs":[{"internalType":"uint256","name":"","type":"uint256"}],"name":"coupons","outputs":[{"internalType":"bytes32","name":"codeHash","type":"bytes32"},{"internalType":"address","name":"creator","type":"address"},{"internalType":"address","name":"token","type":"address"},{"internalType":"uint256","name":"amount","type":"uint256"},{"internalType":"string","name":"metadataURI","type":"string"},{"internalType":"uint256","name":"expiresAt","type":"uint256"},{"internalType":"bool","name":"redeemed","type":"bool"},{"internalType":"address","name":"redeemedBy","type":"address"},{"internalType":"uint256","name":"redeemedAt","type":"uint256"},{"internalType":"uint256","name":"createdAt","type":"uint256"}],"stateMutability":"view","type":"function"},{"inputs":[{"internalType":"string","name":"code","type":"string"},{"internalType":"address","name":"token","type":"address"},{"internalType":"uint256","name":"amount","type":"uint256"},{"internalType":"string","name":"metadataURI","type":"string"},{"internalType":"uint256","name":"expiresAt","type":"uint256"}],"name":"createCoupon","outputs":[{"internalType":"uint256","name":"","type":"uint256"}],"stateMutability":"nonpayable","type":"function"},{"inputs":[{"internalType":"uint256","name":"couponId","type":"uint256"}],"name":"getCoupon","outputs":[{"components":[{"internalType":"bytes32","name":"codeHash","type":"bytes32"},{"internalType":"address","name":"creator","type":"address"},{"internalType":"address","name":"token","type":"address"},{"internalType":"uint256","name":"amount","type":"uint256"},{"internalType":"string","name":"metadataURI","type":"string"},{"internalType":"uint256","name":"expiresAt","type":"uint256"},{"internalType":"bool","name":"redeemed","type":"bool"},{"internalType":"address","name":"redeemedBy","type":"address"},{"internalType":"uint256","name":"redeemedAt","type":"uint256"},{"internalType":"uint256","name":"createdAt","type":"uint256"}],"internalType":"struct GiggleGiftCoupon.Coupon","name":"","type":"tuple"}],"stateMutability":"view","type":"function"},{"inputs":[],"name":"getTotalCoupons","outputs":[{"internalType":"uint256","name":"","type":"uint256"}],"stateMutability":"view","type":"function"},{"inputs":[],"name":"nextCouponId","outputs":[{"internalType":"uint256","name":"","type":"uint256"}],"stateMutability":"view","type":"function"},{"inputs":[],"name":"owner","outputs":[{"internalType":"address","name":"","type":"address"}],"stateMutability":"view","type":"function"},{"inputs":[{"internalType":"string","name":"code","type":"string"}],"name":"redeemCoupon","outputs":[],"stateMutability":"nonpayable","type":"function"},{"inputs":[{"internalType":"address","name":"token","type":"address"}],"name":"removeSupportedToken","outputs":[],"stateMutability":"nonpayable","type":"function"},{"inputs":[],"name":"renounceOwnership","outputs":[],"stateMutability":"nonpayable","type":"function"},{"inputs":[{"internalType":"address","name":"","type":"address"}],"name":"supportedTokens","outputs":[{"internalType":"bool","name":"","type":"bool"}],"stateMutability":"view","type":"function"},{"inputs":[{"internalType":"address","name":"newOwner","type":"address"}],"name":"transferOwnership","outputs":[],"stateMutability":"nonpayable","type":"function"}],"evm":{"bytecode":{"linkReferences":{},"object":"60806040526001600455348015610014575f80fd5b50338061003a57604051631e4fbdf760e01b81525f600482015260240160405180910390fd5b6100438161004d565b506001805561009c565b5f80546001600160a01b038381166001600160a01b0319831681178455604051919092169283917f8be0079c531659141344cd1fd0a4f28419497f9722a3daafe3b4186f6b6457e09190a35050565b6115bc806100a95f395ff3fe608060405234801561000f575f80fd5b50600436106100f0575f3560e01c80636d69fcaf11610093578063936e316911610063578063936e31691461020c578063bf29142a1461022c578063e0f1fc4f14610235578063f2fde38b1461025b575f80fd5b80636d69fcaf146101c4578063715018a6146101d757806376319190146101df5780638da5cb5b146101f2575f80fd5b806347314516116100ce57806347314516146101585780634ddd1aa11461017757806368c4ac261461017f5780636cc866e8146101b1575f80fd5b80630459fafb146100f45780632ce9aa941461010957806330828e921461012f575b5f80fd5b61010761010236600461104e565b61026e565b005b61011c6101173660046110c5565b6103e4565b6040519081526020015b60405180910390f35b61014261013d36600461104e565b6107ec565b6040516101269a99989796959493929190611197565b61011c61016636600461104e565b60036020525f908152604090205481565b61011c6108dd565b6101a161018d366004611200565b60056020525f908152604090205460ff1681565b6040519015158152602001610126565b6101076101bf366004611220565b6108f2565b6101076101d2366004611200565b610b6b565b610107610c0c565b6101076101ed366004611200565b610c1f565b5f546040516001600160a01b039091168152602001610126565b61021f61021a36600461104e565b610c6f565b604051610126919061125f565b61011c60045481565b610248610243366004611220565b610deb565b604051610126979695949392919061131a565b610107610269366004611200565b610f6f565b610276610fa9565b5f81815260026020526040902060018101546001600160a01b031633146102d95760405162461bcd60e51b81526020600482015260126024820152712737ba1031b7bab837b71031b932b0ba37b960711b60448201526064015b60405180910390fd5b600681015460ff16156103215760405162461bcd60e51b815260206004820152601060248201526f105b1c9958591e481c995919595b595960821b60448201526064016102d0565b60068101805460ff191660011790556002810154600382015460405163a9059cbb60e01b815233600482015260248101919091526001600160a01b039091169063a9059cbb906044016020604051808303815f875af1158015610386573d5f803e3d5ffd5b505050506040513d601f19601f820116820180604052508101906103aa919061136d565b50604051339083907ff3f7ee3ec63ca38fe59a56a06f6d730ef89a41b7819ca5c04dda2205c4f2a712905f90a3506103e160018055565b50565b5f6103ed610fa9565b600687101561042f5760405162461bcd60e51b815260206004820152600e60248201526d10dbd919481d1bdbc81cda1bdc9d60921b60448201526064016102d0565b6001600160a01b0386165f9081526005602052604090205460ff1661048c5760405162461bcd60e51b8152602060048201526013602482015272151bdad95b881b9bdd081cdd5c1c1bdc9d1959606a1b60448201526064016102d0565b5f85116104d05760405162461bcd60e51b81526020600482015260126024820152710416d6f756e74206d757374206265203e20360741b60448201526064016102d0565b8115806104dc57504282115b61051d5760405162461bcd60e51b815260206004820152601260248201527124b73b30b634b21032bc3834b930ba34b7b760711b60448201526064016102d0565b5f888860405160200161053192919061138c565b60408051601f1981840301815291815281516020928301205f8181526003909352912054909150156105995760405162461bcd60e51b815260206004820152601160248201527010dbd91948185b1c9958591e481d5cd959607a1b60448201526064016102d0565b6040516323b872dd60e01b8152336004820152306024820152604481018790526001600160a01b038816906323b872dd906064016020604051808303815f875af11580156105e9573d5f803e3d5ffd5b505050506040513d601f19601f8201168201806040525081019061060d919061136d565b50600480545f918261061e836113af565b919050559050604051806101400160405280838152602001336001600160a01b03168152602001896001600160a01b0316815260200188815260200187878080601f0160208091040260200160405190810160405280939291908181526020018383808284375f92018290525093855250505060208083018890526040808401839052606080850184905260808086018590524260a09096019590955286845260028084529382902086518155928601516001840180546001600160a01b03199081166001600160a01b039384161790915592870151948401805490931694169390931790559083015160038201559082015160048201906107209082611461565b5060a0820151600582015560c082015160068201805460e08501516001600160a81b0319909116921515610100600160a81b031916929092176101006001600160a01b0390931683021790558201516007820155610120909101516008909101555f828152600360205260409081902082905551339082907f7cf1012cd14ee78071f547de0e09c9814114efa34949d0237b4e2babb8a759c1906107cd908c908c908c908c908c9061151d565b60405180910390a39150506107e160018055565b979650505050505050565b600260208190525f91825260409091208054600182015492820154600383015460048401805493956001600160a01b039081169593169391929161082f906113db565b80601f016020809104026020016040519081016040528092919081815260200182805461085b906113db565b80156108a65780601f1061087d576101008083540402835291602001916108a6565b820191905f5260205f20905b81548152906001019060200180831161088957829003601f168201915b505050506005830154600684015460078501546008909501549394919360ff821693506101009091046001600160a01b031691908a565b5f60016004546108ed919061156d565b905090565b6108fa610fa9565b5f828260405160200161090e92919061138c565b60408051601f1981840301815291815281516020928301205f818152600390935290822054909250908190036109755760405162461bcd60e51b815260206004820152600c60248201526b496e76616c696420636f646560a01b60448201526064016102d0565b5f818152600260205260409020600681015460ff16156109ca5760405162461bcd60e51b815260206004820152601060248201526f105b1c9958591e481c995919595b595960821b60448201526064016102d0565b6001810154336001600160a01b0390911603610a285760405162461bcd60e51b815260206004820152601860248201527f43616e6e6f742072656465656d206f776e20636f75706f6e000000000000000060448201526064016102d0565b60058101541580610a3d575080600501544211155b610a7a5760405162461bcd60e51b815260206004820152600e60248201526d10dbdd5c1bdb88195e1c1a5c995960921b60448201526064016102d0565b6006810180543361010081026001600160a81b0319909216919091176001179091554260078301556002820154600383015460405163a9059cbb60e01b8152600481019390935260248301526001600160a01b03169063a9059cbb906044016020604051808303815f875af1158015610af5573d5f803e3d5ffd5b505050506040513d601f19601f82011682018060405250810190610b19919061136d565b50600381015460408051918252426020830152339184917fc457220f1348fb407bb4585837961181ec8ad06c9eda9c10c49deec8c43dedaa910160405180910390a3505050610b6760018055565b5050565b610b73610fd3565b6001600160a01b038116610bc15760405162461bcd60e51b8152602060048201526015602482015274496e76616c696420746f6b656e206164647265737360581b60448201526064016102d0565b6001600160a01b0381165f81815260056020526040808220805460ff19166001179055517f784c8f4dbf0ffedd6e72c76501c545a70f8b203b30a26ce542bf92ba87c248a49190a250565b610c14610fd3565b610c1d5f610fff565b565b610c27610fd3565b6001600160a01b0381165f81815260056020526040808220805460ff19169055517f4c910b69fe65a61f7531b9c5042b2329ca7179c77290aa7e2eb3afa3c8511fd39190a250565b60408051610140810182525f808252602082018190529181018290526060808201839052608082015260a0810182905260c0810182905260e0810182905261010081018290526101208101919091525f828152600260208181526040928390208351610140810185528154815260018201546001600160a01b0390811693820193909352928101549091169282019290925260038201546060820152600482018054919291608084019190610d23906113db565b80601f0160208091040260200160405190810160405280929190818152602001828054610d4f906113db565b8015610d9a5780601f10610d7157610100808354040283529160200191610d9a565b820191905f5260205f20905b815481529060010190602001808311610d7d57829003601f168201915b505050918352505060058201546020820152600682015460ff81161515604083015261010090046001600160a01b031660608201526007820154608082015260089091015460a09091015292915050565b5f805f8060605f805f8989604051602001610e0792919061138c565b60408051601f1981840301815291815281516020928301205f81815260039093529082205490925090819003610e6057505060408051602081019091525f80825297508796508695508594509250839150819050610f63565b5f818152600260205260408120600681015490919060ff16158015610e95575060058201541580610e95575081600501544211155b600283015460038401546005850154600186810154600488018054969750919587956001600160a01b0390811695949216908390610ed2906113db565b80601f0160208091040260200160405190810160405280929190818152602001828054610efe906113db565b8015610f495780601f10610f2057610100808354040283529160200191610f49565b820191905f5260205f20905b815481529060010190602001808311610f2c57829003601f168201915b505050505092509a509a509a509a509a509a509a50505050505b92959891949750929550565b610f77610fd3565b6001600160a01b038116610fa057604051631e4fbdf760e01b81525f60048201526024016102d0565b6103e181610fff565b600260015403610fcc57604051633ee5aeb560e01b815260040160405180910390fd5b6002600155565b5f546001600160a01b03163314610c1d5760405163118cdaa760e01b81523360048201526024016102d0565b5f80546001600160a01b038381166001600160a01b0319831681178455604051919092169283917f8be0079c531659141344cd1fd0a4f28419497f9722a3daafe3b4186f6b6457e09190a35050565b5f6020828403121561105e575f80fd5b5035919050565b5f8083601f840112611075575f80fd5b50813567ffffffffffffffff81111561108c575f80fd5b6020830191508360208285010111156110a3575f80fd5b9250929050565b80356001600160a01b03811681146110c0575f80fd5b919050565b5f805f805f805f60a0888a0312156110db575f80fd5b873567ffffffffffffffff808211156110f2575f80fd5b6110fe8b838c01611065565b909950975087915061111260208b016110aa565b965060408a0135955060608a013591508082111561112e575f80fd5b5061113b8a828b01611065565b989b979a50959894979596608090950135949350505050565b5f81518084525f5b818110156111785760208185018101518683018201520161115c565b505f602082860101526020601f19601f83011685010191505092915050565b8a81526001600160a01b038a81166020830152898116604083015260608201899052610140608083018190525f916111d18483018b611154565b60a085019990995296151560c084015250509290931660e0830152610100820152610120015295945050505050565b5f60208284031215611210575f80fd5b611219826110aa565b9392505050565b5f8060208385031215611231575f80fd5b823567ffffffffffffffff811115611247575f80fd5b61125385828601611065565b90969095509350505050565b60208152815160208201525f602083015161128560408401826001600160a01b03169052565b5060408301516001600160a01b0381166060840152506060830151608083015260808301516101408060a08501526112c1610160850183611154565b915060a085015160c085015260c08501516112e060e086018215159052565b5060e08501516101006112fd818701836001600160a01b03169052565b860151610120868101919091529095015193019290925250919050565b871515815286151560208201525f60018060a01b03808816604084015286606084015260e0608084015261135160e0840187611154565b60a08401959095529290921660c0909101525095945050505050565b5f6020828403121561137d575f80fd5b81518015158114611219575f80fd5b818382375f9101908152919050565b634e487b7160e01b5f52601160045260245ffd5b5f600182016113c0576113c061139b565b5060010190565b634e487b7160e01b5f52604160045260245ffd5b600181811c908216806113ef57607f821691505b60208210810361140d57634e487b7160e01b5f52602260045260245ffd5b50919050565b601f82111561145c575f81815260208120601f850160051c810160208610156114395750805b601f850160051c820191505b8181101561145857828155600101611445565b5050505b505050565b815167ffffffffffffffff81111561147b5761147b6113c7565b61148f8161148984546113db565b84611413565b602080601f8311600181146114c2575f84156114ab5750858301515b5f19600386901b1c1916600185901b178555611458565b5f85815260208120601f198616915b828110156114f0578886015182559484019460019091019084016114d1565b508582101561150d57878501515f19600388901b60f8161c191681555b5050505050600190811b01905550565b6001600160a01b0386168152602081018590526080604082018190528101839052828460a08301375f60a084830101525f60a0601f19601f86011683010190508260608301529695505050505050565b818103818111156115805761158061139b565b9291505056fea2646970667358221220cd2212bb819c1664754a6c7792a842bf191428356af9f3610fa9094dbc7a68f864736f6c63430008140033","opcodes":"PUSH1 0x80 PUSH1 0x40 MSTORE PUSH1 0x1 PUSH1 0x4 SSTORE CALLVALUE DUP1 ISZERO PUSH2 0x14 JUMPI PUSH0 DUP1 REVERT JUMPDEST POP CALLER DUP1 PUSH2 0x3A JUMPI PUSH1 0x40 MLOAD PUSH4 0x1E4FBDF7 PUSH1 0xE0 SHL DUP2 MSTORE PUSH0 PUSH1 0x4 DUP3 ADD MSTORE PUSH1 0x24 ADD PUSH1 0x40 MLOAD DUP1 SWAP2 SUB SWAP1 REVERT JUMPDEST PUSH2 0x43 DUP2 PUSH2 0x4D JUMP JUMPDEST POP PUSH1 0x1 DUP1 SSTORE PUSH2 0x9C JUMP JUMPDEST PUSH0 DUP1 SLOAD PUSH1 0x1 PUSH1 0x1 PUSH1 0xA0 SHL SUB DUP4 DUP2 AND PUSH1 0x1 PUSH1 0x1 PUSH1 0xA0 SHL SUB NOT DUP4 AND DUP2 OR DUP5 SSTORE PUSH1 0x40 MLOAD SWAP2 SWAP1 SWAP3 AND SWAP3 DUP4 SWAP2 PUSH32 0x8BE0079C531659141344CD1FD0A4F28419497F9722A3DAAFE3B4186F6B6457E0 SWAP2 SWAP1 LOG3 POP POP JUMP JUMPDEST PUSH2 0x15BC DUP1 PUSH2 0xA9 PUSH0 CODECOPY PUSH0 RETURN INVALID PUSH1 0x80 PUSH1 0x40 MSTORE CALLVALUE DUP1 ISZERO PUSH2 0xF JUMPI PUSH0 DUP1 REVERT JUMPDEST POP PUSH1 0x4 CALLDATASIZE LT PUSH2 0xF0 JUMPI PUSH0 CALLDATALOAD PUSH1 0xE0 SHR DUP1 PUSH4 0x6D69FCAF GT PUSH2 0x93 JUMPI DUP1 PUSH4 0x936E3169 GT PUSH2 0x63 JUMPI DUP1 PUSH4 0x936E3169 EQ PUSH2 0x20C JUMPI DUP1 PUSH4 0xBF29142A EQ PUSH2 0x22C JUMPI DUP1 PUSH4 0xE0F1FC4F EQ PUSH2 0x235 JUMPI DUP1 PUSH4 0xF2FDE38B EQ PUSH2 0x25B JUMPI PUSH0 DUP1 REVERT JUMPDEST DUP1 PUSH4 0x6D69FCAF EQ PUSH2 0x1C4 JUMPI DUP1 PUSH4 0x715018A6 EQ PUSH2 0x1D7 JUMPI DUP1 PUSH4 0x76319190 EQ PUSH2 0x1DF JUMPI DUP1 PUSH4 0x8DA5CB5B EQ PUSH2 0x1F2 JUMPI PUSH0 DUP1 REVERT JUMPDEST DUP1 PUSH4 0x47314516 GT PUSH2 0xCE JUMPI DUP1 PUSH4 0x47314516 EQ PUSH2 0x158 JUMPI DUP1 PUSH4 0x4DDD1AA1 EQ PUSH2 0x177 JUMPI DUP1 PUSH4 0x68C4AC26 EQ PUSH2 0x17F JUMPI DUP1 PUSH4 0x6CC866E8 EQ PUSH2 0x1B1 JUMPI PUSH0 DUP1 REVERT JUMPDEST DUP1 PUSH4 0x459FAFB EQ PUSH2 0xF4 JUMPI DUP1 PUSH4 0x2CE9AA94 EQ PUSH2 0x109 JUMPI DUP1 PUSH4 0x30828E92 EQ PUSH2 0x12F JUMPI JUMPDEST PUSH0 DUP1 REVERT JUMPDEST PUSH2 0x107 PUSH2 0x102 CALLDATASIZE PUSH1 0x4 PUSH2 0x104E JUMP JUMPDEST PUSH2 0x26E JUMP JUMPDEST STOP JUMPDEST PUSH2 0x11C PUSH2 0x117 CALLDATASIZE PUSH1 0x4 PUSH2 0x10C5 JUMP JUMPDEST PUSH2 0x3E4 JUMP JUMPDEST PUSH1 0x40 MLOAD SWAP1 DUP2 MSTORE PUSH1 0x20 ADD JUMPDEST PUSH1 0x40 MLOAD DUP1 SWAP2 SUB SWAP1 RETURN JUMPDEST PUSH2 0x142 PUSH2 0x13D CALLDATASIZE PUSH1 0x4 PUSH2 0x104E JUMP JUMPDEST PUSH2 0x7EC JUMP JUMPDEST PUSH1 0x40 MLOAD PUSH2 0x126 SWAP11 SWAP10 SWAP9 SWAP8 SWAP7 SWAP6 SWAP5 SWAP4 SWAP3 SWAP2 SWAP1 PUSH2 0x1197 JUMP JUMPDEST PUSH2 0x11C PUSH2 0x166 CALLDATASIZE PUSH1 0x4 PUSH2 0x104E JUMP JUMPDEST PUSH1 0x3 PUSH1 0x20 MSTORE PUSH0 SWAP1 DUP2 MSTORE PUSH1 0x40 SWAP1 KECCAK256 SLOAD DUP2 JUMP JUMPDEST PUSH2 0x11C PUSH2 0x8DD JUMP JUMPDEST PUSH2 0x1A1 PUSH2 0x18D CALLDATASIZE PUSH1 0x4 PUSH2 0x1200 JUMP JUMPDEST PUSH1 0x5 PUSH1 0x20 MSTORE PUSH0 SWAP1 DUP2 MSTORE PUSH1 0x40 SWAP1 KECCAK256 SLOAD PUSH1 0xFF AND DUP2 JUMP JUMPDEST PUSH1 0x40 MLOAD SWAP1 ISZERO ISZERO DUP2 MSTORE PUSH1 0x20 ADD PUSH2 0x126 JUMP JUMPDEST PUSH2 0x107 PUSH2 0x1BF CALLDATASIZE PUSH1 0x4 PUSH2 0x1220 JUMP JUMPDEST PUSH2 0x8F2 JUMP JUMPDEST PUSH2 0x107 PUSH2 0x1D2 CALLDATASIZE PUSH1 0x4 PUSH2 0x1200 JUMP JUMPDEST PUSH2 0xB6B JUMP JUMPDEST PUSH2 0x107 PUSH2 0xC0C JUMP JUMPDEST PUSH2 0x107 PUSH2 0x1ED CALLDATASIZE PUSH1 0x4 PUSH2 0x1200 JUMP JUMPDEST PUSH2 0xC1F JUMP JUMPDEST PUSH0 SLOAD PUSH1 0x40 MLOAD PUSH1 0x1 PUSH1 0x1 PUSH1 0xA0 SHL SUB SWAP1 SWAP2 AND DUP2 MSTORE PUSH1 0x20 ADD PUSH2 0x126 JUMP JUMPDEST PUSH2 0x21F PUSH2 0x21A CALLDATASIZE PUSH1 0x4 PUSH2 0x104E JUMP JUMPDEST PUSH2 0xC6F JUMP JUMPDEST PUSH1 0x40 MLOAD PUSH2 0x126 SWAP2 SWAP1 PUSH2 0x125F JUMP JUMPDEST PUSH2 0x11C PUSH1 0x4 SLOAD DUP2 JUMP JUMPDEST PUSH2 0x248 PUSH2 0x243 CALLDATASIZE PUSH1 0x4 PUSH2 0x1220 JUMP JUMPDEST PUSH2 0xDEB JUMP JUMPDEST PUSH1 0x40 MLOAD PUSH2 0x126 SWAP8 SWAP7 SWAP6 SWAP5 SWAP4 SWAP3 SWAP2 SWAP1 PUSH2 0x131A JUMP JUMPDEST PUSH2 0x107 PUSH2 0x269 CALLDATASIZE PUSH1 0x4 PUSH2 0x1200 JUMP JUMPDEST PUSH2 0xF6F JUMP JUMPDEST PUSH2 0x276 PUSH2 0xFA9 JUMP JUMPDEST PUSH0 DUP2 DUP2 MSTORE PUSH1 0x2 PUSH1 0x20 MSTORE PUSH1 0x40 SWAP1 KECCAK256 PUSH1 0x1 DUP2 ADD SLOAD PUSH1 0x1 PUSH1 0x1 PUSH1 0xA0 SHL SUB AND CALLER EQ PUSH2 0x2D9 JUMPI PUSH1 0x40 MLOAD PUSH3 0x461BCD PUSH1 0xE5 SHL DUP2 MSTORE PUSH1 0x20 PUSH1 0x4 DUP3 ADD MSTORE PUSH1 0x12 PUSH1 0x24 DUP3 ADD MSTORE PUSH18 0x2737BA1031B7BAB837B71031B932B0BA37B9 PUSH1 0x71 SHL PUSH1 0x44 DUP3 ADD MSTORE PUSH1 0x64 ADD JUMPDEST PUSH1 0x40 MLOAD DUP1 SWAP2 SUB SWAP1 REVERT JUMPDEST PUSH1 0x6 DUP2 ADD SLOAD PUSH1 0xFF AND ISZERO PUSH2 0x321 JUMPI PUSH1 0x40 MLOAD PUSH3 0x461BCD PUSH1 0xE5 SHL DUP2 MSTORE PUSH1 0x20 PUSH1 0x4 DUP3 ADD MSTORE PUSH1 0x10 PUSH1 0x24 DUP3 ADD MSTORE PUSH16 0x105B1C9958591E481C995919595B5959 PUSH1 0x82 SHL PUSH1 0x44 DUP3 ADD MSTORE PUSH1 0x64 ADD PUSH2 0x2D0 JUMP JUMPDEST PUSH1 0x6 DUP2 ADD DUP1 SLOAD PUSH1 0xFF NOT AND PUSH1 0x1 OR SWAP1 SSTORE PUSH1 0x2 DUP2 ADD SLOAD PUSH1 0x3 DUP3 ADD SLOAD PUSH1 0x40 MLOAD PUSH4 0xA9059CBB PUSH1 0xE0 SHL DUP2 MSTORE CALLER PUSH1 0x4 DUP3 ADD MSTORE PUSH1 0x24 DUP2 ADD SWAP2 SWAP1 SWAP2 MSTORE PUSH1 0x1 PUSH1 0x1 PUSH1 0xA0 SHL SUB SWAP1 SWAP2 AND SWAP1 PUSH4 0xA9059CBB SWAP1 PUSH1 0x44 ADD PUSH1 0x20 PUSH1 0x40 MLOAD DUP1 DUP4 SUB DUP2 PUSH0 DUP8 GAS CALL ISZERO DUP1 ISZERO PUSH2 0x386 JUMPI RETURNDATASIZE PUSH0 DUP1 RETURNDATACOPY RETURNDATASIZE PUSH0 REVERT JUMPDEST POP POP POP POP PUSH1 0x40 MLOAD RETURNDATASIZE PUSH1 0x1F NOT PUSH1 0x1F DUP3 ADD AND DUP3 ADD DUP1 PUSH1 0x40 MSTORE POP DUP2 ADD SWAP1 PUSH2 0x3AA SWAP2 SWAP1 PUSH2 0x136D JUMP JUMPDEST POP PUSH1 0x40 MLOAD CALLER SWAP1 DUP4 SWAP1 PUSH32 0xF3F7EE3EC63CA38FE59A56A06F6D730EF89A41B7819CA5C04DDA2205C4F2A712 SWAP1 PUSH0 SWAP1 LOG3 POP PUSH2 0x3E1 PUSH1 0x1 DUP1 SSTORE JUMP JUMPDEST POP JUMP JUMPDEST PUSH0 PUSH2 0x3ED PUSH2 0xFA9 JUMP JUMPDEST PUSH1 0x6 DUP8 LT ISZERO PUSH2 0x42F JUMPI PUSH1 0x40 MLOAD PUSH3 0x461BCD PUSH1 0xE5 SHL DUP2 MSTORE PUSH1 0x20 PUSH1 0x4 DUP3 ADD MSTORE PUSH1 0xE PUSH1 0x24 DUP3 ADD MSTORE PUSH14 0x10DBD919481D1BDBC81CDA1BDC9D PUSH1 0x92 SHL PUSH1 0x44 DUP3 ADD MSTORE PUSH1 0x64 ADD PUSH2 0x2D0 JUMP JUMPDEST PUSH1 0x1 PUSH1 0x1 PUSH1 0xA0 SHL SUB DUP7 AND PUSH0 SWAP1 DUP2 MSTORE PUSH1 0x5 PUSH1 0x20 MSTORE PUSH1 0x40 SWAP1 KECCAK256 SLOAD PUSH1 0xFF AND PUSH2 0x48C JUMPI PUSH1 0x40 MLOAD PUSH3 0x461BCD PUSH1 0xE5 SHL DUP2 MSTORE PUSH1 0x20 PUSH1 0x4 DUP3 ADD MSTORE PUSH1 0x13 PUSH1 0x24 DUP3 ADD MSTORE PUSH19 0x151BDAD95B881B9BDD081CDD5C1C1BDC9D1959 PUSH1 0x6A SHL PUSH1 0x44 DUP3 ADD MSTORE PUSH1 0x64 ADD PUSH2 0x2D0 JUMP JUMPDEST PUSH0 DUP6 GT PUSH2 0x4D0 JUMPI PUSH1 0x40 MLOAD PUSH3 0x461BCD PUSH1 0xE5 SHL DUP2 MSTORE PUSH1 0x20 PUSH1 0x4 DUP3 ADD MSTORE PUSH1 0x12 PUSH1 0x24 DUP3 ADD MSTORE PUSH18 0x416D6F756E74206D757374206265203E203 PUSH1 0x74 SHL PUSH1 0x44 DUP3 ADD MSTORE PUSH1 0x64 ADD PUSH2 0x2D0 JUMP JUMPDEST DUP2 ISZERO DUP1 PUSH2 0x4DC JUMPI POP TIMESTAMP DUP3 GT JUMPDEST PUSH2 0x51D JUMPI PUSH1 0x40 MLOAD PUSH3 0x461BCD PUSH1 0xE5 SHL DUP2 MSTORE PUSH1 0x20 PUSH1 0x4 DUP3 ADD MSTORE PUSH1 0x12 PUSH1 0x24 DUP3 ADD MSTORE PUSH18 0x24B73B30B634B21032BC3834B930BA34B7B7 PUSH1 0x71 SHL PUSH1 0x44 DUP3 ADD MSTORE PUSH1 0x64 ADD PUSH2 0x2D0 JUMP JUMPDEST PUSH0 DUP9 DUP9 PUSH1 0x40 MLOAD PUSH1 0x20 ADD PUSH2 0x531 SWAP3 SWAP2 SWAP1 PUSH2 0x138C JUMP JUMPDEST PUSH1 0x40 DUP1 MLOAD PUSH1 0x1F NOT DUP2 DUP5 SUB ADD DUP2 MSTORE SWAP2 DUP2 MSTORE DUP2 MLOAD PUSH1 0x20 SWAP3 DUP4 ADD KECCAK256 PUSH0 DUP2 DUP2 MSTORE PUSH1 0x3 SWAP1 SWAP4 MSTORE SWAP2 KECCAK256 SLOAD SWAP1 SWAP2 POP ISZERO PUSH2 0x599 JUMPI PUSH1 0x40 MLOAD PUSH3 0x461BCD PUSH1 0xE5 SHL DUP2 MSTORE PUSH1 0x20 PUSH1 0x4 DUP3 ADD MSTORE PUSH1 0x11 PUSH1 0x24 DUP3 ADD MSTORE PUSH17 0x10DBD91948185B1C9958591E481D5CD959 PUSH1 0x7A SHL PUSH1 0x44 DUP3 ADD MSTORE PUSH1 0x64 ADD PUSH2 0x2D0 JUMP JUMPDEST PUSH1 0x40 MLOAD PUSH4 0x23B872DD PUSH1 0xE0 SHL DUP2 MSTORE CALLER PUSH1 0x4 DUP3 ADD MSTORE ADDRESS PUSH1 0x24 DUP3 ADD MSTORE PUSH1 0x44 DUP2 ADD DUP8 SWAP1 MSTORE PUSH1 0x1 PUSH1 0x1 PUSH1 0xA0 SHL SUB DUP9 AND SWAP1 PUSH4 0x23B872DD SWAP1 PUSH1 0x64 ADD PUSH1 0x20 PUSH1 0x40 MLOAD DUP1 DUP4 SUB DUP2 PUSH0 DUP8 GAS CALL ISZERO DUP1 ISZERO PUSH2 0x5E9 JUMPI RETURNDATASIZE PUSH0 DUP1 RETURNDATACOPY RETURNDATASIZE PUSH0 REVERT JUMPDEST POP POP POP POP PUSH1 0x40 MLOAD RETURNDATASIZE PUSH1 0x1F NOT PUSH1 0x1F DUP3 ADD AND DUP3 ADD DUP1 PUSH1 0x40 MSTORE POP DUP2 ADD SWAP1 PUSH2 0x60D SWAP2 SWAP1 PUSH2 0x136D JUMP JUMPDEST POP PUSH1 0x4 DUP1 SLOAD PUSH0 SWAP2 DUP3 PUSH2 0x61E DUP4 PUSH2 0x13AF JUMP JUMPDEST SWAP2 SWAP1 POP SSTORE SWAP1 POP PUSH1 0x40 MLOAD DUP1 PUSH2 0x140 ADD PUSH1 0x40 MSTORE DUP1 DUP4 DUP2 MSTORE PUSH1 0x20 ADD CALLER PUSH1 0x1 PUSH1 0x1 PUSH1 0xA0 SHL SUB AND DUP2 MSTORE PUSH1 0x20 ADD DUP10 PUSH1 0x1 PUSH1 0x1 PUSH1 0xA0 SHL SUB AND DUP2 MSTORE PUSH1 0x20 ADD DUP9 DUP2 MSTORE PUSH1 0x20 ADD DUP8 DUP8 DUP1 DUP1 PUSH1 0x1F ADD PUSH1 0x20 DUP1 SWAP2 DIV MUL PUSH1 0x20 ADD PUSH1 0x40 MLOAD SWAP1 DUP2 ADD PUSH1 0x40 MSTORE DUP1 SWAP4 SWAP3 SWAP2 SWAP1 DUP2 DUP2 MSTORE PUSH1 0x20 ADD DUP4 DUP4 DUP1 DUP3 DUP5 CALLDATACOPY PUSH0 SWAP3 ADD DUP3 SWAP1 MSTORE POP SWAP4 DUP6 MSTORE POP POP POP PUSH1 0x20 DUP1 DUP4 ADD DUP9 SWAP1 MSTORE PUSH1 0x40 DUP1 DUP5 ADD DUP4 SWAP1 MSTORE PUSH1 0x60 DUP1 DUP6 ADD DUP5 SWAP1 MSTORE PUSH1 0x80 DUP1 DUP7 ADD DUP6 SWAP1 MSTORE TIMESTAMP PUSH1 0xA0 SWAP1 SWAP7 ADD SWAP6 SWAP1 SWAP6 MSTORE DUP7 DUP5 MSTORE PUSH1 0x2 DUP1 DUP5 MSTORE SWAP4 DUP3 SWAP1 KECCAK256 DUP7 MLOAD DUP2 SSTORE SWAP3 DUP7 ADD MLOAD PUSH1 0x1 DUP5 ADD DUP1 SLOAD PUSH1 0x1 PUSH1 0x1 PUSH1 0xA0 SHL SUB NOT SWAP1 DUP2 AND PUSH1 0x1 PUSH1 0x1 PUSH1 0xA0 SHL SUB SWAP4 DUP5 AND OR SWAP1 SWAP2 SSTORE SWAP3 DUP8 ADD MLOAD SWAP5 DUP5 ADD DUP1 SLOAD SWAP1 SWAP4 AND SWAP5 AND SWAP4 SWAP1 SWAP4 OR SWAP1 SSTORE SWAP1 DUP4 ADD MLOAD PUSH1 0x3 DUP3 ADD SSTORE SWAP1 DUP3 ADD MLOAD PUSH1 0x4 DUP3 ADD SWAP1 PUSH2 0x720 SWAP1 DUP3 PUSH2 0x1461 JUMP JUMPDEST POP PUSH1 0xA0 DUP3 ADD MLOAD PUSH1 0x5 DUP3 ADD SSTORE PUSH1 0xC0 DUP3 ADD MLOAD PUSH1 0x6 DUP3 ADD DUP1 SLOAD PUSH1 0xE0 DUP6 ADD MLOAD PUSH1 0x1 PUSH1 0x1 PUSH1 0xA8 SHL SUB NOT SWAP1 SWAP2 AND SWAP3 ISZERO ISZERO PUSH2 0x100 PUSH1 0x1 PUSH1 0xA8 SHL SUB NOT AND SWAP3 SWAP1 SWAP3 OR PUSH2 0x100 PUSH1 0x1 PUSH1 0x1 PUSH1 0xA0 SHL SUB SWAP1 SWAP4 AND DUP4 MUL OR SWAP1 SSTORE DUP3 ADD MLOAD PUSH1 0x7 DUP3 ADD SSTORE PUSH2 0x120 SWAP1 SWAP2 ADD MLOAD PUSH1 0x8 SWAP1 SWAP2 ADD SSTORE PUSH0 DUP3 DUP2 MSTORE PUSH1 0x3 PUSH1 0x20 MSTORE PUSH1 0x40 SWAP1 DUP2 SWAP1 KECCAK256 DUP3 SWAP1 SSTORE MLOAD CALLER SWAP1 DUP3 SWAP1 PUSH32 0x7CF1012CD14EE78071F547DE0E09C9814114EFA34949D0237B4E2BABB8A759C1 SWAP1 PUSH2 0x7CD SWAP1 DUP13 SWAP1 DUP13 SWAP1 DUP13 SWAP1 DUP13 SWAP1 DUP13 SWAP1 PUSH2 0x151D JUMP JUMPDEST PUSH1 0x40 MLOAD DUP1 SWAP2 SUB SWAP1 LOG3 SWAP2 POP POP PUSH2 0x7E1 PUSH1 0x1 DUP1 SSTORE JUMP JUMPDEST SWAP8 SWAP7 POP POP POP POP POP POP POP JUMP JUMPDEST PUSH1 0x2 PUSH1 0x20 DUP2 SWAP1 MSTORE PUSH0 SWAP2 DUP3 MSTORE PUSH1 0x40 SWAP1 SWAP2 KECCAK256 DUP1 SLOAD PUSH1 0x1 DUP3 ADD SLOAD SWAP3 DUP3 ADD SLOAD PUSH1 0x3 DUP4 ADD SLOAD PUSH1 0x4 DUP5 ADD DUP1 SLOAD SWAP4 SWAP6 PUSH1 0x1 PUSH1 0x1 PUSH1 0xA0 SHL SUB SWAP1 DUP2 AND SWAP6 SWAP4 AND SWAP4 SWAP2 SWAP3 SWAP2 PUSH2 0x82F SWAP1 PUSH2 0x13DB JUMP JUMPDEST DUP1 PUSH1 0x1F ADD PUSH1 0x20 DUP1 SWAP2 DIV MUL PUSH1 0x20 ADD PUSH1 0x40 MLOAD SWAP1 DUP2 ADD PUSH1 0x40 MSTORE DUP1 SWAP3 SWAP2 SWAP1 DUP2 DUP2 MSTORE PUSH1 0x20 ADD DUP3 DUP1 SLOAD PUSH2 0x85B SWAP1 PUSH2 0x13DB JUMP JUMPDEST DUP1 ISZERO PUSH2 0x8A6 JUMPI DUP1 PUSH1 0x1F LT PUSH2 0x87D JUMPI PUSH2 0x100 DUP1 DUP4 SLOAD DIV MUL DUP4 MSTORE SWAP2 PUSH1 0x20 ADD SWAP2 PUSH2 0x8A6 JUMP JUMPDEST DUP3 ADD SWAP2 SWAP1 PUSH0 MSTORE PUSH1 0x20 PUSH0 KECCAK256 SWAP1 JUMPDEST DUP2 SLOAD DUP2 MSTORE SWAP1 PUSH1 0x1 ADD SWAP1 PUSH1 0x20 ADD DUP1 DUP4 GT PUSH2 0x889 JUMPI DUP3 SWAP1 SUB PUSH1 0x1F AND DUP3 ADD SWAP2 JUMPDEST POP POP POP POP PUSH1 0x5 DUP4 ADD SLOAD PUSH1 0x6 DUP5 ADD SLOAD PUSH1 0x7 DUP6 ADD SLOAD PUSH1 0x8 SWAP1 SWAP6 ADD SLOAD SWAP4 SWAP5 SWAP2 SWAP4 PUSH1 0xFF DUP3 AND SWAP4 POP PUSH2 0x100 SWAP1 SWAP2 DIV PUSH1 0x1 PUSH1 0x1 PUSH1 0xA0 SHL SUB AND SWAP2 SWAP1 DUP11 JUMP JUMPDEST PUSH0 PUSH1 0x1 PUSH1 0x4 SLOAD PUSH2 0x8ED SWAP2 SWAP1 PUSH2 0x156D JUMP JUMPDEST SWAP1 POP SWAP1 JUMP JUMPDEST PUSH2 0x8FA PUSH2 0xFA9 JUMP JUMPDEST PUSH0 DUP3 DUP3 PUSH1 0x40 MLOAD PUSH1 0x20 ADD PUSH2 0x90E SWAP3 SWAP2 SWAP1 PUSH2 0x138C JUMP JUMPDEST PUSH1 0x40 DUP1 MLOAD PUSH1 0x1F NOT DUP2 DUP5 SUB ADD DUP2 MSTORE SWAP2 DUP2 MSTORE DUP2 MLOAD PUSH1 0x20 SWAP3 DUP4 ADD KECCAK256 PUSH0 DUP2 DUP2 MSTORE PUSH1 0x3 SWAP1 SWAP4 MSTORE SWAP1 DUP3 KECCAK256 SLOAD SWAP1 SWAP3 POP SWAP1 DUP2 SWAP1 SUB PUSH2 0x975 JUMPI PUSH1 0x40 MLOAD PUSH3 0x461BCD PUSH1 0xE5 SHL DUP2 MSTORE PUSH1 0x20 PUSH1 0x4 DUP3 ADD MSTORE PUSH1 0xC PUSH1 0x24 DUP3 ADD MSTORE PUSH12 0x496E76616C696420636F6465 PUSH1 0xA0 SHL PUSH1 0x44 DUP3 ADD MSTORE PUSH1 0x64 ADD PUSH2 0x2D0 JUMP JUMPDEST PUSH0 DUP2 DUP2 MSTORE PUSH1 0x2 PUSH1 0x20 MSTORE PUSH1 0x40 SWAP1 KECCAK256 PUSH1 0x6 DUP2 ADD SLOAD PUSH1 0xFF AND ISZERO PUSH2 0x9CA JUMPI PUSH1 0x40 MLOAD PUSH3 0x461BCD PUSH1 0xE5 SHL DUP2 MSTORE PUSH1 0x20 PUSH1 0x4 DUP3 ADD MSTORE PUSH1 0x10 PUSH1 0x24 DUP3 ADD MSTORE PUSH16 0x105B1C9958591E481C995919595B5959 PUSH1 0x82 SHL PUSH1 0x44 DUP3 ADD MSTORE PUSH1 0x64 ADD PUSH2 0x2D0 JUMP JUMPDEST PUSH1 0x1 DUP2 ADD SLOAD CALLER PUSH1 0x1 PUSH1 0x1 PUSH1 0xA0 SHL SUB SWAP1 SWAP2 AND SUB PUSH2 0xA28 JUMPI PUSH1 0x40 MLOAD PUSH3 0x461BCD PUSH1 0xE5 SHL DUP2 MSTORE PUSH1 0x20 PUSH1 0x4 DUP3 ADD MSTORE PUSH1 0x18 PUSH1 0x24 DUP3 ADD MSTORE PUSH32 0x43616E6E6F742072656465656D206F776E20636F75706F6E0000000000000000 PUSH1 0x44 DUP3 ADD MSTORE PUSH1 0x64 ADD PUSH2 0x2D0 JUMP JUMPDEST PUSH1 0x5 DUP2 ADD SLOAD ISZERO DUP1 PUSH2 0xA3D JUMPI POP DUP1 PUSH1 0x5 ADD SLOAD TIMESTAMP GT ISZERO JUMPDEST PUSH2 0xA7A JUMPI PUSH1 0x40 MLOAD PUSH3 0x461BCD PUSH1 0xE5 SHL DUP2 MSTORE PUSH1 0x20 PUSH1 0x4 DUP3 ADD MSTORE PUSH1 0xE PUSH1 0x24 DUP3 ADD MSTORE PUSH14 0x10DBDD5C1BDB88195E1C1A5C9959 PUSH1 0x92 SHL PUSH1 0x44 DUP3 ADD MSTORE PUSH1 0x64 ADD PUSH2 0x2D0 JUMP JUMPDEST PUSH1 0x6 DUP2 ADD DUP1 SLOAD CALLER PUSH2 0x100 DUP2 MUL PUSH1 0x1 PUSH1 0x1 PUSH1 0xA8 SHL SUB NOT SWAP1 SWAP3 AND SWAP2 SWAP1 SWAP2 OR PUSH1 0x1 OR SWAP1 SWAP2 SSTORE TIMESTAMP PUSH1 0x7 DUP4 ADD SSTORE PUSH1 0x2 DUP3 ADD SLOAD PUSH1 0x3 DUP4 ADD SLOAD PUSH1 0x40 MLOAD PUSH4 0xA9059CBB PUSH1 0xE0 SHL DUP2 MSTORE PUSH1 0x4 DUP2 ADD SWAP4 SWAP1 SWAP4 MSTORE PUSH1 0x24 DUP4 ADD MSTORE PUSH1 0x1 PUSH1 0x1 PUSH1 0xA0 SHL SUB AND SWAP1 PUSH4 0xA9059CBB SWAP1 PUSH1 0x44 ADD PUSH1 0x20 PUSH1 0x40 MLOAD DUP1 DUP4 SUB DUP2 PUSH0 DUP8 GAS CALL ISZERO DUP1 ISZERO PUSH2 0xAF5 JUMPI RETURNDATASIZE PUSH0 DUP1 RETURNDATACOPY RETURNDATASIZE PUSH0 REVERT JUMPDEST POP POP POP POP PUSH1 0x40 MLOAD RETURNDATASIZE PUSH1 0x1F NOT PUSH1 0x1F DUP3 ADD AND DUP3 ADD DUP1 PUSH1 0x40 MSTORE POP DUP2 ADD SWAP1 PUSH2 0xB19 SWAP2 SWAP1 PUSH2 0x136D JUMP JUMPDEST POP PUSH1 0x3 DUP2 ADD SLOAD PUSH1 0x40 DUP1 MLOAD SWAP2 DUP3 MSTORE TIMESTAMP PUSH1 0x20 DUP4 ADD MSTORE CALLER SWAP2 DUP5 SWAP2 PUSH32 0xC457220F1348FB407BB4585837961181EC8AD06C9EDA9C10C49DEEC8C43DEDAA SWAP2 ADD PUSH1 0x40 MLOAD DUP1 SWAP2 SUB SWAP1 LOG3 POP POP POP PUSH2 0xB67 PUSH1 0x1 DUP1 SSTORE JUMP JUMPDEST POP POP JUMP JUMPDEST PUSH2 0xB73 PUSH2 0xFD3 JUMP JUMPDEST PUSH1 0x1 PUSH1 0x1 PUSH1 0xA0 SHL SUB DUP2 AND PUSH2 0xBC1 JUMPI PUSH1 0x40 MLOAD PUSH3 0x461BCD PUSH1 0xE5 SHL DUP2 MSTORE PUSH1 0x20 PUSH1 0x4 DUP3 ADD MSTORE PUSH1 0x15 PUSH1 0x24 DUP3 ADD MSTORE PUSH21 0x496E76616C696420746F6B656E2061646472657373 PUSH1 0x58 SHL PUSH1 0x44 DUP3 ADD MSTORE PUSH1 0x64 ADD PUSH2 0x2D0 JUMP JUMPDEST PUSH1 0x1 PUSH1 0x1 PUSH1 0xA0 SHL SUB DUP2 AND PUSH0 DUP2 DUP2 MSTORE PUSH1 0x5 PUSH1 0x20 MSTORE PUSH1 0x40 DUP1 DUP3 KECCAK256 DUP1 SLOAD PUSH1 0xFF NOT AND PUSH1 0x1 OR SWAP1 SSTORE MLOAD PUSH32 0x784C8F4DBF0FFEDD6E72C76501C545A70F8B203B30A26CE542BF92BA87C248A4 SWAP2 SWAP1 LOG2 POP JUMP JUMPDEST PUSH2 0xC14 PUSH2 0xFD3 JUMP JUMPDEST PUSH2 0xC1D PUSH0 PUSH2 0xFFF JUMP JUMPDEST JUMP JUMPDEST PUSH2 0xC27 PUSH2 0xFD3 JUMP JUMPDEST PUSH1 0x1 PUSH1 0x1 PUSH1 0xA0 SHL SUB DUP2 AND PUSH0 DUP2 DUP2 MSTORE PUSH1 0x5 PUSH1 0x20 MSTORE PUSH1 0x40 DUP1 DUP3 KECCAK256 DUP1 SLOAD PUSH1 0xFF NOT AND SWAP1 SSTORE MLOAD PUSH32 0x4C910B69FE65A61F7531B9C5042B2329CA7179C77290AA7E2EB3AFA3C8511FD3 SWAP2 SWAP1 LOG2 POP JUMP JUMPDEST PUSH1 0x40 DUP1 MLOAD PUSH2 0x140 DUP2 ADD DUP3 MSTORE PUSH0 DUP1 DUP3 MSTORE PUSH1 0x20 DUP3 ADD DUP2 SWAP1 MSTORE SWAP2 DUP2 ADD DUP3 SWAP1 MSTORE PUSH1 0x60 DUP1 DUP3 ADD DUP4 SWAP1 MSTORE PUSH1 0x80 DUP3 ADD MSTORE PUSH1 0xA0 DUP2 ADD DUP3 SWAP1 MSTORE PUSH1 0xC0 DUP2 ADD DUP3 SWAP1 MSTORE PUSH1 0xE0 DUP2 ADD DUP3 SWAP1 MSTORE PUSH2 0x100 DUP2 ADD DUP3 SWAP1 MSTORE PUSH2 0x120 DUP2 ADD SWAP2 SWAP1 SWAP2 MSTORE PUSH0 DUP3 DUP2 MSTORE PUSH1 0x2 PUSH1 0x20 DUP2 DUP2 MSTORE PUSH1 0x40 SWAP3 DUP4 SWAP1 KECCAK256 DUP4 MLOAD PUSH2 0x140 DUP2 ADD DUP6 MSTORE DUP2 SLOAD DUP2 MSTORE PUSH1 0x1 DUP3 ADD SLOAD PUSH1 0x1 PUSH1 0x1 PUSH1 0xA0 SHL SUB SWAP1 DUP2 AND SWAP4 DUP3 ADD SWAP4 SWAP1 SWAP4 MSTORE SWAP3 DUP2 ADD SLOAD SWAP1 SWAP2 AND SWAP3 DUP3 ADD SWAP3 SWAP1 SWAP3 MSTORE PUSH1 0x3 DUP3 ADD SLOAD PUSH1 0x60 DUP3 ADD MSTORE PUSH1 0x4 DUP3 ADD DUP1 SLOAD SWAP2 SWAP3 SWAP2 PUSH1 0x80 DUP5 ADD SWAP2 SWAP1 PUSH2 0xD23 SWAP1 PUSH2 0x13DB JUMP JUMPDEST DUP1 PUSH1 0x1F ADD PUSH1 0x20 DUP1 SWAP2 DIV MUL PUSH1 0x20 ADD PUSH1 0x40 MLOAD SWAP1 DUP2 ADD PUSH1 0x40 MSTORE DUP1 SWAP3 SWAP2 SWAP1 DUP2 DUP2 MSTORE PUSH1 0x20 ADD DUP3 DUP1 SLOAD PUSH2 0xD4F SWAP1 PUSH2 0x13DB JUMP JUMPDEST DUP1 ISZERO PUSH2 0xD9A JUMPI DUP1 PUSH1 0x1F LT PUSH2 0xD71 JUMPI PUSH2 0x100 DUP1 DUP4 SLOAD DIV MUL DUP4 MSTORE SWAP2 PUSH1 0x20 ADD SWAP2 PUSH2 0xD9A JUMP JUMPDEST DUP3 ADD SWAP2 SWAP1 PUSH0 MSTORE PUSH1 0x20 PUSH0 KECCAK256 SWAP1 JUMPDEST DUP2 SLOAD DUP2 MSTORE SWAP1 PUSH1 0x1 ADD SWAP1 PUSH1 0x20 ADD DUP1 DUP4 GT PUSH2 0xD7D JUMPI DUP3 SWAP1 SUB PUSH1 0x1F AND DUP3 ADD SWAP2 JUMPDEST POP POP POP SWAP2 DUP4 MSTORE POP POP PUSH1 0x5 DUP3 ADD SLOAD PUSH1 0x20 DUP3 ADD MSTORE PUSH1 0x6 DUP3 ADD SLOAD PUSH1 0xFF DUP2 AND ISZERO ISZERO PUSH1 0x40 DUP4 ADD MSTORE PUSH2 0x100 SWAP1 DIV PUSH1 0x1 PUSH1 0x1 PUSH1 0xA0 SHL SUB AND PUSH1 0x60 DUP3 ADD MSTORE PUSH1 0x7 DUP3 ADD SLOAD PUSH1 0x80 DUP3 ADD MSTORE PUSH1 0x8 SWAP1 SWAP2 ADD SLOAD PUSH1 0xA0 SWAP1 SWAP2 ADD MSTORE SWAP3 SWAP2 POP POP JUMP JUMPDEST PUSH0 DUP1 PUSH0 DUP1 PUSH1 0x60 PUSH0 DUP1 PUSH0 DUP10 DUP10 PUSH1 0x40 MLOAD PUSH1 0x20 ADD PUSH2 0xE07 SWAP3 SWAP2 SWAP1 PUSH2 0x138C JUMP JUMPDEST PUSH1 0x40 DUP1 MLOAD PUSH1 0x1F NOT DUP2 DUP5 SUB ADD DUP2 MSTORE SWAP2 DUP2 MSTORE DUP2 MLOAD PUSH1 0x20 SWAP3 DUP4 ADD KECCAK256 PUSH0 DUP2 DUP2 MSTORE PUSH1 0x3 SWAP1 SWAP4 MSTORE SWAP1 DUP3 KECCAK256 SLOAD SWAP1 SWAP3 POP SWAP1 DUP2 SWAP1 SUB PUSH2 0xE60 JUMPI POP POP PUSH1 0x40 DUP1 MLOAD PUSH1 0x20 DUP2 ADD SWAP1 SWAP2 MSTORE PUSH0 DUP1 DUP3 MSTORE SWAP8 POP DUP8 SWAP7 POP DUP7 SWAP6 POP DUP6 SWAP5 POP SWAP3 POP DUP4 SWAP2 POP DUP2 SWAP1 POP PUSH2 0xF63 JUMP JUMPDEST PUSH0 DUP2 DUP2 MSTORE PUSH1 0x2 PUSH1 0x20 MSTORE PUSH1 0x40 DUP2 KECCAK256 PUSH1 0x6 DUP2 ADD SLOAD SWAP1 SWAP2 SWAP1 PUSH1 0xFF AND ISZERO DUP1 ISZERO PUSH2 0xE95 JUMPI POP PUSH1 0x5 DUP3 ADD SLOAD ISZERO DUP1 PUSH2 0xE95 JUMPI POP DUP2 PUSH1 0x5 ADD SLOAD TIMESTAMP GT ISZERO JUMPDEST PUSH1 0x2 DUP4 ADD SLOAD PUSH1 0x3 DUP5 ADD SLOAD PUSH1 0x5 DUP6 ADD SLOAD PUSH1 0x1 DUP7 DUP2 ADD SLOAD PUSH1 0x4 DUP9 ADD DUP1 SLOAD SWAP7 SWAP8 POP SWAP2 SWAP6 DUP8 SWAP6 PUSH1 0x1 PUSH1 0x1 PUSH1 0xA0 SHL SUB SWAP1 DUP2 AND SWAP6 SWAP5 SWAP3 AND SWAP1 DUP4 SWAP1 PUSH2 0xED2 SWAP1 PUSH2 0x13DB JUMP JUMPDEST DUP1 PUSH1 0x1F ADD PUSH1 0x20 DUP1 SWAP2 DIV MUL PUSH1 0x20 ADD PUSH1 0x40 MLOAD SWAP1 DUP2 ADD PUSH1 0x40 MSTORE DUP1 SWAP3 SWAP2 SWAP1 DUP2 DUP2 MSTORE PUSH1 0x20 ADD DUP3 DUP1 SLOAD PUSH2 0xEFE SWAP1 PUSH2 0x13DB JUMP JUMPDEST DUP1 ISZERO PUSH2 0xF49 JUMPI DUP1 PUSH1 0x1F LT PUSH2 0xF20 JUMPI PUSH2 0x100 DUP1 DUP4 SLOAD DIV MUL DUP4 MSTORE SWAP2 PUSH1 0x20 ADD SWAP2 PUSH2 0xF49 JUMP JUMPDEST DUP3 ADD SWAP2 SWAP1 PUSH0 MSTORE PUSH1 0x20 PUSH0 KECCAK256 SWAP1 JUMPDEST DUP2 SLOAD DUP2 MSTORE SWAP1 PUSH1 0x1 ADD SWAP1 PUSH1 0x20 ADD DUP1 DUP4 GT PUSH2 0xF2C JUMPI DUP3 SWAP1 SUB PUSH1 0x1F AND DUP3 ADD SWAP2 JUMPDEST POP POP POP POP POP SWAP3 POP SWAP11 POP SWAP11 POP SWAP11 POP SWAP11 POP SWAP11 POP SWAP11 POP SWAP11 POP POP POP POP POP JUMPDEST SWAP3 SWAP6 SWAP9 SWAP2 SWAP5 SWAP8 POP SWAP3 SWAP6 POP JUMP JUMPDEST PUSH2 0xF77 PUSH2 0xFD3 JUMP JUMPDEST PUSH1 0x1 PUSH1 0x1 PUSH1 0xA0 SHL SUB DUP2 AND PUSH2 0xFA0 JUMPI PUSH1 0x40 MLOAD PUSH4 0x1E4FBDF7 PUSH1 0xE0 SHL DUP2 MSTORE PUSH0 PUSH1 0x4 DUP3 ADD MSTORE PUSH1 0x24 ADD PUSH2 0x2D0 JUMP JUMPDEST PUSH2 0x3E1 DUP2 PUSH2 0xFFF JUMP JUMPDEST PUSH1 0x2 PUSH1 0x1 SLOAD SUB PUSH2 0xFCC JUMPI PUSH1 0x40 MLOAD PUSH4 0x3EE5AEB5 PUSH1 0xE0 SHL DUP2 MSTORE PUSH1 0x4 ADD PUSH1 0x40 MLOAD DUP1 SWAP2 SUB SWAP1 REVERT JUMPDEST PUSH1 0x2 PUSH1 0x1 SSTORE JUMP JUMPDEST PUSH0 SLOAD PUSH1 0x1 PUSH1 0x1 PUSH1 0xA0 SHL SUB AND CALLER EQ PUSH2 0xC1D JUMPI PUSH1 0x40 MLOAD PUSH4 0x118CDAA7 PUSH1 0xE0 SHL DUP2 MSTORE CALLER PUSH1 0x4 DUP3 ADD MSTORE PUSH1 0x24 ADD PUSH2 0x2D0 JUMP JUMPDEST PUSH0 DUP1 SLOAD PUSH1 0x1 PUSH1 0x1 PUSH1 0xA0 SHL SUB DUP4 DUP2 AND PUSH1 0x1 PUSH1 0x1 PUSH1 0xA0 SHL SUB NOT DUP4 AND DUP2 OR DUP5 SSTORE PUSH1 0x40 MLOAD SWAP2 SWAP1 SWAP3 AND SWAP3 DUP4 SWAP2 PUSH32 0x8BE0079C531659141344CD1FD0A4F28419497F9722A3DAAFE3B4186F6B6457E0 SWAP2 SWAP1 LOG3 POP POP JUMP JUMPDEST PUSH0 PUSH1 0x20 DUP3 DUP5 SUB SLT ISZERO PUSH2 0x105E JUMPI PUSH0 DUP1 REVERT JUMPDEST POP CALLDATALOAD SWAP2 SWAP1 POP JUMP JUMPDEST PUSH0 DUP1 DUP4 PUSH1 0x1F DUP5 ADD SLT PUSH2 0x1075 JUMPI PUSH0 DUP1 REVERT JUMPDEST POP DUP2 CALLDATALOAD PUSH8 0xFFFFFFFFFFFFFFFF DUP2 GT ISZERO PUSH2 0x108C JUMPI PUSH0 DUP1 REVERT JUMPDEST PUSH1 0x20 DUP4 ADD SWAP2 POP DUP4 PUSH1 0x20 DUP3 DUP6 ADD ADD GT ISZERO PUSH2 0x10A3 JUMPI PUSH0 DUP1 REVERT JUMPDEST SWAP3 POP SWAP3 SWAP1 POP JUMP JUMPDEST DUP1 CALLDATALOAD PUSH1 0x1 PUSH1 0x1 PUSH1 0xA0 SHL SUB DUP2 AND DUP2 EQ PUSH2 0x10C0 JUMPI PUSH0 DUP1 REVERT JUMPDEST SWAP2 SWAP1 POP JUMP JUMPDEST PUSH0 DUP1 PUSH0 DUP1 PUSH0 DUP1 PUSH0 PUSH1 0xA0 DUP9 DUP11 SUB SLT ISZERO PUSH2 0x10DB JUMPI PUSH0 DUP1 REVERT JUMPDEST DUP8 CALLDATALOAD PUSH8 0xFFFFFFFFFFFFFFFF DUP1 DUP3 GT ISZERO PUSH2 0x10F2 JUMPI PUSH0 DUP1 REVERT JUMPDEST PUSH2 0x10FE DUP12 DUP4 DUP13 ADD PUSH2 0x1065 JUMP JUMPDEST SWAP1 SWAP10 POP SWAP8 POP DUP8 SWAP2 POP PUSH2 0x1112 PUSH1 0x20 DUP12 ADD PUSH2 0x10AA JUMP JUMPDEST SWAP7 POP PUSH1 0x40 DUP11 ADD CALLDATALOAD SWAP6 POP PUSH1 0x60 DUP11 ADD CALLDATALOAD SWAP2 POP DUP1 DUP3 GT ISZERO PUSH2 0x112E JUMPI PUSH0 DUP1 REVERT JUMPDEST POP PUSH2 0x113B DUP11 DUP3 DUP12 ADD PUSH2 0x1065 JUMP JUMPDEST SWAP9 SWAP12 SWAP8 SWAP11 POP SWAP6 SWAP9 SWAP5 SWAP8 SWAP6 SWAP7 PUSH1 0x80 SWAP1 SWAP6 ADD CALLDATALOAD SWAP5 SWAP4 POP POP POP POP JUMP JUMPDEST PUSH0 DUP2 MLOAD DUP1 DUP5 MSTORE PUSH0 JUMPDEST DUP2 DUP2 LT ISZERO PUSH2 0x1178 JUMPI PUSH1 0x20 DUP2 DUP6 ADD DUP2 ADD MLOAD DUP7 DUP4 ADD DUP3 ADD MSTORE ADD PUSH2 0x115C JUMP JUMPDEST POP PUSH0 PUSH1 0x20 DUP3 DUP7 ADD ADD MSTORE PUSH1 0x20 PUSH1 0x1F NOT PUSH1 0x1F DUP4 ADD AND DUP6 ADD ADD SWAP2 POP POP SWAP3 SWAP2 POP POP JUMP JUMPDEST DUP11 DUP2 MSTORE PUSH1 0x1 PUSH1 0x1 PUSH1 0xA0 SHL SUB DUP11 DUP2 AND PUSH1 0x20 DUP4 ADD MSTORE DUP10 DUP2 AND PUSH1 0x40 DUP4 ADD MSTORE PUSH1 0x60 DUP3 ADD DUP10 SWAP1 MSTORE PUSH2 0x140 PUSH1 0x80 DUP4 ADD DUP2 SWAP1 MSTORE PUSH0 SWAP2 PUSH2 0x11D1 DUP5 DUP4 ADD DUP12 PUSH2 0x1154 JUMP JUMPDEST PUSH1 0xA0 DUP6 ADD SWAP10 SWAP1 SWAP10 MSTORE SWAP7 ISZERO ISZERO PUSH1 0xC0 DUP5 ADD MSTORE POP POP SWAP3 SWAP1 SWAP4 AND PUSH1 0xE0 DUP4 ADD MSTORE PUSH2 0x100 DUP3 ADD MSTORE PUSH2 0x120 ADD MSTORE SWAP6 SWAP5 POP POP POP POP POP JUMP JUMPDEST PUSH0 PUSH1 0x20 DUP3 DUP5 SUB SLT ISZERO PUSH2 0x1210 JUMPI PUSH0 DUP1 REVERT JUMPDEST PUSH2 0x1219 DUP3 PUSH2 0x10AA JUMP JUMPDEST SWAP4 SWAP3 POP POP POP JUMP JUMPDEST PUSH0 DUP1 PUSH1 0x20 DUP4 DUP6 SUB SLT ISZERO PUSH2 0x1231 JUMPI PUSH0 DUP1 REVERT JUMPDEST DUP3 CALLDATALOAD PUSH8 0xFFFFFFFFFFFFFFFF DUP2 GT ISZERO PUSH2 0x1247 JUMPI PUSH0 DUP1 REVERT JUMPDEST PUSH2 0x1253 DUP6 DUP3 DUP7 ADD PUSH2 0x1065 JUMP JUMPDEST SWAP1 SWAP7 SWAP1 SWAP6 POP SWAP4 POP POP POP POP JUMP JUMPDEST PUSH1 0x20 DUP2 MSTORE DUP2 MLOAD PUSH1 0x20 DUP3 ADD MSTORE PUSH0 PUSH1 0x20 DUP4 ADD MLOAD PUSH2 0x1285 PUSH1 0x40 DUP5 ADD DUP3 PUSH1 0x1 PUSH1 0x1 PUSH1 0xA0 SHL SUB AND SWAP1 MSTORE JUMP JUMPDEST POP PUSH1 0x40 DUP4 ADD MLOAD PUSH1 0x1 PUSH1 0x1 PUSH1 0xA0 SHL SUB DUP2 AND PUSH1 0x60 DUP5 ADD MSTORE POP PUSH1 0x60 DUP4 ADD MLOAD PUSH1 0x80 DUP4 ADD MSTORE PUSH1 0x80 DUP4 ADD MLOAD PUSH2 0x140 DUP1 PUSH1 0xA0 DUP6 ADD MSTORE PUSH2 0x12C1 PUSH2 0x160 DUP6 ADD DUP4 PUSH2 0x1154 JUMP JUMPDEST SWAP2 POP PUSH1 0xA0 DUP6 ADD MLOAD PUSH1 0xC0 DUP6 ADD MSTORE PUSH1 0xC0 DUP6 ADD MLOAD PUSH2 0x12E0 PUSH1 0xE0 DUP7 ADD DUP3 ISZERO ISZERO SWAP1 MSTORE JUMP JUMPDEST POP PUSH1 0xE0 DUP6 ADD MLOAD PUSH2 0x100 PUSH2 0x12FD DUP2 DUP8 ADD DUP4 PUSH1 0x1 PUSH1 0x1 PUSH1 0xA0 SHL SUB AND SWAP1 MSTORE JUMP JUMPDEST DUP7 ADD MLOAD PUSH2 0x120 DUP7 DUP2 ADD SWAP2 SWAP1 SWAP2 MSTORE SWAP1 SWAP6 ADD MLOAD SWAP4 ADD SWAP3 SWAP1 SWAP3 MSTORE POP SWAP2 SWAP1 POP JUMP JUMPDEST DUP8 ISZERO ISZERO DUP2 MSTORE DUP7 ISZERO ISZERO PUSH1 0x20 DUP3 ADD MSTORE PUSH0 PUSH1 0x1 DUP1 PUSH1 0xA0 SHL SUB DUP1 DUP9 AND PUSH1 0x40 DUP5 ADD MSTORE DUP7 PUSH1 0x60 DUP5 ADD MSTORE PUSH1 0xE0 PUSH1 0x80 DUP5 ADD MSTORE PUSH2 0x1351 PUSH1 0xE0 DUP5 ADD DUP8 PUSH2 0x1154 JUMP JUMPDEST PUSH1 0xA0 DUP5 ADD SWAP6 SWAP1 SWAP6 MSTORE SWAP3 SWAP1 SWAP3 AND PUSH1 0xC0 SWAP1 SWAP2 ADD MSTORE POP SWAP6 SWAP5 POP POP POP POP POP JUMP JUMPDEST PUSH0 PUSH1 0x20 DUP3 DUP5 SUB SLT ISZERO PUSH2 0x137D JUMPI PUSH0 DUP1 REVERT JUMPDEST DUP2 MLOAD DUP1 ISZERO ISZERO DUP2 EQ PUSH2 0x1219 JUMPI PUSH0 DUP1 REVERT JUMPDEST DUP2 DUP4 DUP3 CALLDATACOPY PUSH0 SWAP2 ADD SWAP1 DUP2 MSTORE SWAP2 SWAP1 POP JUMP JUMPDEST PUSH4 0x4E487B71 PUSH1 0xE0 SHL PUSH0 MSTORE PUSH1 0x11 PUSH1 0x4 MSTORE PUSH1 0x24 PUSH0 REVERT JUMPDEST PUSH0 PUSH1 0x1 DUP3 ADD PUSH2 0x13C0 JUMPI PUSH2 0x13C0 PUSH2 0x139B JUMP JUMPDEST POP PUSH1 0x1 ADD SWAP1 JUMP JUMPDEST PUSH4 0x4E487B71 PUSH1 0xE0 SHL PUSH0 MSTORE PUSH1 0x41 PUSH1 0x4 MSTORE PUSH1 0x24 PUSH0 REVERT JUMPDEST PUSH1 0x1 DUP2 DUP2 SHR SWAP1 DUP3 AND DUP1 PUSH2 0x13EF JUMPI PUSH1 0x7F DUP3 AND SWAP2 POP JUMPDEST PUSH1 0x20 DUP3 LT DUP2 SUB PUSH2 0x140D JUMPI PUSH4 0x4E487B71 PUSH1 0xE0 SHL PUSH0 MSTORE PUSH1 0x22 PUSH1 0x4 MSTORE PUSH1 0x24 PUSH0 REVERT JUMPDEST POP SWAP2 SWAP1 POP JUMP JUMPDEST PUSH1 0x1F DUP3 GT ISZERO PUSH2 0x145C JUMPI PUSH0 DUP2 DUP2 MSTORE PUSH1 0x20 DUP2 KECCAK256 PUSH1 0x1F DUP6 ADD PUSH1 0x5 SHR DUP2 ADD PUSH1 0x20 DUP7 LT ISZERO PUSH2 0x1439 JUMPI POP DUP1 JUMPDEST PUSH1 0x1F DUP6 ADD PUSH1 0x5 SHR DUP3 ADD SWAP2 POP JUMPDEST DUP2 DUP2 LT ISZERO PUSH2 0x1458 JUMPI DUP3 DUP2 SSTORE PUSH1 0x1 ADD PUSH2 0x1445 JUMP JUMPDEST POP POP POP JUMPDEST POP POP POP JUMP JUMPDEST DUP2 MLOAD PUSH8 0xFFFFFFFFFFFFFFFF DUP2 GT ISZERO PUSH2 0x147B JUMPI PUSH2 0x147B PUSH2 0x13C7 JUMP JUMPDEST PUSH2 0x148F DUP2 PUSH2 0x1489 DUP5 SLOAD PUSH2 0x13DB JUMP JUMPDEST DUP5 PUSH2 0x1413 JUMP JUMPDEST PUSH1 0x20 DUP1 PUSH1 0x1F DUP4 GT PUSH1 0x1 DUP2 EQ PUSH2 0x14C2 JUMPI PUSH0 DUP5 ISZERO PUSH2 0x14AB JUMPI POP DUP6 DUP4 ADD MLOAD JUMPDEST PUSH0 NOT PUSH1 0x3 DUP7 SWAP1 SHL SHR NOT AND PUSH1 0x1 DUP6 SWAP1 SHL OR DUP6 SSTORE PUSH2 0x1458 JUMP JUMPDEST PUSH0 DUP6 DUP2 MSTORE PUSH1 0x20 DUP2 KECCAK256 PUSH1 0x1F NOT DUP7 AND SWAP2 JUMPDEST DUP3 DUP2 LT ISZERO PUSH2 0x14F0 JUMPI DUP9 DUP7 ADD MLOAD DUP3 SSTORE SWAP5 DUP5 ADD SWAP5 PUSH1 0x1 SWAP1 SWAP2 ADD SWAP1 DUP5 ADD PUSH2 0x14D1 JUMP JUMPDEST POP DUP6 DUP3 LT ISZERO PUSH2 0x150D JUMPI DUP8 DUP6 ADD MLOAD PUSH0 NOT PUSH1 0x3 DUP9 SWAP1 SHL PUSH1 0xF8 AND SHR NOT AND DUP2 SSTORE JUMPDEST POP POP POP POP POP PUSH1 0x1 SWAP1 DUP2 SHL ADD SWAP1 SSTORE POP JUMP JUMPDEST PUSH1 0x1 PUSH1 0x1 PUSH1 0xA0 SHL SUB DUP7 AND DUP2 MSTORE PUSH1 0x20 DUP2 ADD DUP6 SWAP1 MSTORE PUSH1 0x80 PUSH1 0x40 DUP3 ADD DUP2 SWAP1 MSTORE DUP2 ADD DUP4 SWAP1 MSTORE DUP3 DUP5 PUSH1 0xA0 DUP4 ADD CALLDATACOPY PUSH0 PUSH1 0xA0 DUP5 DUP4 ADD ADD MSTORE PUSH0 PUSH1 0xA0 PUSH1 0x1F NOT PUSH1 0x1F DUP7 ADD AND DUP4 ADD ADD SWAP1 POP DUP3 PUSH1 0x60 DUP4 ADD MSTORE SWAP7 SWAP6 POP POP POP POP POP POP JUMP JUMPDEST DUP2 DUP2 SUB DUP2 DUP2 GT ISZERO PUSH2 0x1580 JUMPI PUSH2 0x1580 PUSH2 0x139B JUMP JUMPDEST SWAP3 SWAP2 POP POP JUMP INVALID LOG2 PUSH5 0x6970667358 0x22 SLT KECCAK256 0xCD 0x22 SLT 0xBB DUP2 SWAP13 AND PUSH5 0x754A6C7792 0xA8 TIMESTAMP 0xBF NOT EQ 0x28 CALLDATALOAD PUSH11 0xF9F3610FA9094DBC7A68F8 PUSH5 0x736F6C6343 STOP ADDMOD EQ STOP CALLER "},"methodIdentifiers":{"addSupportedToken(address)":"6d69fcaf","cancelCoupon(uint256)":"0459fafb","checkCoupon(string)":"e0f1fc4f","codeHashToCouponId(bytes32)":"47314516","coupons(uint256)":"30828e92","createCoupon(string,address,uint256,string,uint256)":"2ce9aa94","getCoupon(uint256)":"936e3169","getTotalCoupons()":"4ddd1aa1","nextCouponId()":"bf29142a","owner()":"8da5cb5b","redeemCoupon(string)":"6cc866e8","removeSupportedToken(address)":"76319190","renounceOwnership()":"715018a6","supportedTokens(address)":"68c4ac26","transferOwnership(address)":"f2fde38b"}}}}}